:020000040800F2
:1000000068080020F902000865020008670200087D
:100010006B0200086F020008730200080000000075
:10002000000000000000000000000000790200084D
:1000300077020008000000007B0200087D02000833
:100040007F02000881020008830200088502000880
:1000500087020008890200088B0200088D02000850
:100060008F02000891020008930200089502000820
:1000700097020008990200089B0200089D020008F0
:100080009F020008A1020008A3020008A5020008C0
:10009000A7020008A9020008AB020008AD02000890
:1000A000AF020008B1020008B3020008B502000860
:1000B000B7020008B9020008BB020008BD02000830
:1000C000BF020008C1020008C3020008C502000800
:1000D000C7020008C9020008CB020008CD020008D0
:1000E000CF020008D1020008D3020008D5020008A0
:1000F000D7020008D9020008DB020008DD02000870
:10010000DF020008E1020008E3020008E50200083F
:10011000E7020008E9020008EB020008ED0200080F
:10012000EF020008F1020008F3020008F5020008DF
:1001300000F002F800F03AF80AA090E8000C8244BF
:100140008344AAF10107DA4501D100F02FF8AFF29C
:10015000090EBAE80F0013F0010F18BFFB1A43F0A5
:10016000010318472409000044090000103A24BF85
:1001700078C878C1FAD8520724BF30C830C144BF0C
:1001800004680C607047000000230024002500264E
:10019000103A28BF78C1FBD8520728BF30C148BFEA
:1001A0000B6070471FB51FBD10B510BD00F027FCD8
:1001B0001146FFF7F7FF00F009F800F045FC03B423
:1001C000FFF7F2FF03BC00F04DFC000043F23330B8
:1001D0002249086044F24440091D086010E01F48AD
:1001E0000830006800F48070B0F5807F04D10120F1
:1001F0001A490C31086003E0002018490C310860EE
:10020000EDE7002108E04FF47A7201E0531E9AB244
:10021000002AFBDC4B1C99B28142F4DB704708B525
:100220004FF6FF70ADF8000003208DF8020010209B
:100230008DF803006946094800F0D8F84FF4407083
:10024000ADF8000003208DF8020010208DF80300A7
:100250006946034800F0CAF808BD000000080140E4
:1002600000100140704700BFFEE700BFFEE700BF7F
:10027000FEE700BFFEE77047704770477047704762
:1002800070477047704770477047704770477047B6
:1002900070477047704770477047704770477047A6
:1002A0007047704770477047704770477047704796
:1002B0007047704770477047704770477047704786
:1002C0007047704770477047704770477047704776
:1002D0007047704770477047704770477047704766
:1002E0007047704770477047704770477047704756
:1002F00070477047704700000348004703480449AF
:10030000044A054B704700003101000868000020D6
:1003100068080020680400206804002010B5044626
:10032000C549601A8C422FD009DCC448204480B1F2
:10033000B0F5806F16D0B0F5006F4AD11BE0B0F574
:10034000806F2AD0B0F5006F30D0B0F5406F40D14B
:1003500035E00121042000F001FB0021042000F021
:10036000FDFA37E00121082000F0F8FA002108200A
:1003700000F0F4FA2EE00121102000F0EFFA002145
:10038000102000F0EBFA25E00121202000F0E6FA31
:100390000021202000F0E2FA1CE00121402000F0C2
:1003A000DDFA0021402000F0D9FA13E0012180207D
:1003B00000F0D4FA0021802000F0D0FA0AE00121F8
:1003C000080200F0CBFA00214FF4807000F0C6FA6A
:1003D00000E000BF00BF10BD10B50121084600F0CD
:1003E000BDFA0021012000F0B9FA10BD2DE9F0415D
:1003F000024600250026002000230024002791F853
:1004000003C00CF00F0591F803C00CF0100CBCF108
:10041000000F03D091F802C04CEA050591F800C026
:10042000BCF1000F30D0146800202AE04FF0010C1E
:100430000CFA00F3B1F800C00CEA03069E421FD18B
:1004400083004FF00F0C0CFA03F7BC4305FA03FCD2
:100450004CEA040491F803C0BCF1280F05D14FF019
:10046000010C0CFA00FCC2F814C091F803C0BCF1F6
:10047000480F05D14FF0010C0CFA00FCC2F810C077
:10048000401C0828D2D31460B1F800C0BCF1FF0FA3
:1004900034DD546800202EE000F1080C4FF0010814
:1004A00008FA0CF3B1F800C00CEA03069E4221D111
:1004B00083004FF00F0C0CFA03F7BC4305FA03FC62
:1004C0004CEA040491F803C0BCF1280F05D100F1F7
:1004D000080C08FA0CF8C2F8148091F803C0BCF1BB
:1004E000480F07D100F1080C4FF0010808FA0CF88A
:1004F000C2F81080401C0828CED35460BDE8F081BB
:100500004FF6FF710180022181700421C170704794
:100510000246002093680B400BB1012000E0002050
:1005200070470146886880B2704702460020D36851
:100530000B400BB1012000E0002070470146C86865
:1005400080B2704701617047416170470AB1016133
:1005500000E041617047C16070474FF480320A4348
:1005600082618161826182698269704702460020EE
:10057000334B18684FF68073184040EA0210084366
:100580002F4B186070472F49C8617047F0B50A4675
:100590000023002400210025294E7168C0F3034583
:1005A00083B200F44016B6F5401F08D121F0706107
:1005B000234E766826F07066214F7E6012E000F4CC
:1005C0008016B6F5801F06D1032606FA05F4A1436E
:1005D00041F0706106E0460D360103FA06F6B143BC
:1005E00041F0706122B1460D360103FA06F631433F
:1005F000134E7160F0BD30B500228B071C0F0F2326
:1006000003FA04F20E4B08338C1053F82430934352
:100610000B4C08348D1044F8253023468C1053F8C9
:1006200024308C07240F00FA04F42343044C0834CC
:100630008D1044F8253030BD0014014000F8FEBF95
:100640000000014000002042E048006840F0010046
:10065000DE49086008464068DD490840DB494860DB
:1006600008460068DB490840D84908600846006829
:1006700020F4802008600846406820F4FE004860AE
:10068000002088607047D149096821F48031CF4A41
:1006900011601146096821F480211160B0F5803F96
:1006A00003D0B0F5802F0ED106E0C849096841F4A7
:1006B0008031C64A116007E0C449096841F4A021AD
:1006C000C24A116000E000BF00BF704710B501468C
:1006D0000022002300204A11012A02D1BB4C2368CA
:1006E00006E0022A02D1B94C236A01E0B74C636AE2
:1006F00001F01F02012494401C400CB1012000E0D5
:10070000002010BD10B5002400BF3120FFF7DEFF30
:10071000B1490870B1480068401CB0490860AE4853
:10072000007828B90846006840F2FF118842ECD1F1
:100730003120FFF7CBFF08B1012400E00024204660
:1007400010BD01460020A14A106820F0F80040EAE0
:10075000C10010607047A24908607047024600203F
:100760009A4B586820F47C1042EA01031843974BD7
:10077000586070479A490866704701460020934ABE
:10078000506820F003000843506070478F4840686D
:1007900000F00C007047014600208C4A506820F0A1
:1007A000F00008435060704701460020874A5068B7
:1007B00020F4E06008435060704701460020834AFF
:1007C000506820F4605040EAC1005060704729B181
:1007D0007E4A527A02437D4B5A7204E07B4A527A37
:1007E00082437A4B5A7270477D49D831086070470E
:1007F00001460020754A506820F44040084350608C
:1008000070470021714A20321170704A82F820101E
:10081000012802D004280AD104E001216B4A2032C9
:10082000117005E00521694A2032117000E000BF17
:1008300000BF70476B49086070476449096A01430B
:10084000624A11627047674944390860704730B5A1
:1008500000210022002400235C4D6D6805F00C018E
:1008600021B1042905D0082923D105E05E4D05609A
:1008700022E05D4D05601FE0544D6D6805F4701277
:10088000022505EB9242514D6D6805F480341CB988
:10089000564D554305600BE04C4D6D6805F4003531
:1008A0001DB1524D5543056002E04F4D5543056063
:1008B00002E04D4D056000BF00BF444D6D6805F07E
:1008C000F00109094A4D6B5C0568DD4045603F4D0C
:1008D0006D6805F4E061090A454D6B5C4568DD40D3
:1008E00085603A4D6D6805F46051C90A404D6B5CF6
:1008F0004568DD40C560354D6D6805F44041890BA4
:100900003C4D6B5CC568B5FBF3F5056130BD29B1A5
:100910002E4A526902432D4B5A6104E02B4A526918
:1009200082432A4B5A61704729B1284A926902438F
:10093000264B9A6104E0254A92698243234B9A61CF
:10094000704729B1214AD2690243204BDA6104E0A1
:100950001E4AD26982431D4BDA61704729B11B4A96
:10096000D2680243194BDA6004E0184AD268824325
:10097000164BDA60704729B1144A12690243134BCF
:100980001A6104E0114A12698243104B1A617047E0
:1009900014494039086070471149C86470470B49D1
:1009A000C87170470948406A40F080700749486242
:1009B000704701460020054A92680A400AB10120AA
:1009C00000E0002070470149887270470010024023
:1009D0000000FFF8FFFFF6FE0000002004000020EA
:1009E000000042428004424200127A0000093D00A9
:1009F000720A0008820A00087047704770477546FF
:100A000000F02CF8AE4605006946534620F007007A
:100A1000854618B020B5FFF771FCBDE820404FF0C7
:100A200000064FF000074FF000084FF0000B21F0D8
:100A30000701AC46ACE8C009ACE8C009ACE8C009A5
:100A4000ACE8C0098D46704710B50446AFF300808E
:100A50002046BDE81040FFF7B2BB000000487047D9
:100A60000800002001491820ABBEFEE72600020066
:100A7000704700000000010203040102030406079E
:100A80000809020406080000A80A00080000002067
:100A9000080000006C010008B00A000808000020EF
:100AA000600800008801000800000000000000004D
:0400000508000131BD
:00000001FF
