:020000042000DA
:1000000008A4002045010020590D00205B0D0020B0
:100010005F0D0020630D0020670D00200000000030
:100020000000000000000000000000006D0D002036
:100030006B0D0020000000006F0D0020710D0020EE
:10004000730D0020750D0020770D0020790D002024
:100050007B0D00207D0D00207F0D0020810D0020F4
:10006000830D0020850D0020870D0020890D0020C4
:100070008B0D00208D0D00208F0D0020910D002094
:10008000930D0020950D0020970D0020990D002064
:100090009B0D00209D0D00209F0D0020A10D002034
:1000A000A30D0020A50D0020A70D0020A90D002004
:1000B000AB0D0020AD0D0020AF0D0020B10D0020D4
:1000C000B30D0020B50D0020B70D0020B90D0020A4
:1000D000BB0D0020BD0D0020BF0D0020C10D002074
:1000E000C30D0020C50D0020C70D0020C90D002044
:1000F000CB0D0020CD0D0020CF0D0020D10D002014
:10010000D30D0020D50D0020D70D0020D90D0020E3
:10011000DB0D0020DD0D0020DF0D0020E10D0020B3
:10012000E30D0020E50D0020E70D0020E90D002083
:10013000DFF80CD001F0EAF8004800474F12002029
:1001400008A40020004800473101002010B50446F3
:10015000C549601A8C422FD009DCC448204480B1C4
:10016000B0F5806F16D0B0F5006F4AD11BE0B0F546
:10017000806F2AD0B0F5006F30D0B0F5406F40D11D
:1001800035E00121042000F001FB0021042000F0F3
:10019000FDFA37E00121082000F0F8FA00210820DC
:1001A00000F0F4FA2EE00121102000F0EFFA002117
:1001B000102000F0EBFA25E00121202000F0E6FA03
:1001C0000021202000F0E2FA1CE00121402000F094
:1001D000DDFA0021402000F0D9FA13E0012180204F
:1001E00000F0D4FA0021802000F0D0FA0AE00121CA
:1001F000080200F0CBFA00214FF4807000F0C6FA3C
:1002000000E000BF00BF10BD10B50121084600F09E
:10021000BDFA0021012000F0B9FA10BD2DE9F0412E
:10022000024600250026002000230024002791F824
:1002300003C00CF00F0591F803C00CF0100CBCF1DA
:10024000000F03D091F802C04CEA050591F800C0F8
:10025000BCF1000F30D0146800202AE04FF0010CF0
:100260000CFA00F3B1F800C00CEA03069E421FD15D
:1002700083004FF00F0C0CFA03F7BC4305FA03FCA4
:100280004CEA040491F803C0BCF1280F05D14FF0EB
:10029000010C0CFA00FCC2F814C091F803C0BCF1C8
:1002A000480F05D14FF0010C0CFA00FCC2F810C049
:1002B000401C0828D2D31460B1F800C0BCF1FF0F75
:1002C00034DD546800202EE000F1080C4FF00108E6
:1002D00008FA0CF3B1F800C00CEA03069E4221D1E3
:1002E00083004FF00F0C0CFA03F7BC4305FA03FC34
:1002F0004CEA040491F803C0BCF1280F05D100F1C9
:10030000080C08FA0CF8C2F8148091F803C0BCF18C
:10031000480F07D100F1080C4FF0010808FA0CF85B
:10032000C2F81080401C0828CED35460BDE8F0818C
:100330004FF6FF710180022181700421C170704766
:100340000246002093680B400BB1012000E0002022
:1003500070470146886880B2704702460020D36823
:100360000B400BB1012000E0002070470146C86837
:1003700080B2704701617047416170470AB1016105
:1003800000E041617047C16070474FF480320A431A
:1003900082618161826182698269704702460020C0
:1003A000334B18684FF68073184040EA0210084338
:1003B0002F4B186070472F49C8617047F0B50A4647
:1003C0000023002400210025294E7168C0F3034555
:1003D00083B200F44016B6F5401F08D121F07061D9
:1003E000234E766826F07066214F7E6012E000F49E
:1003F0008016B6F5801F06D1032606FA05F4A14340
:1004000041F0706106E0460D360103FA06F6B1438D
:1004100041F0706122B1460D360103FA06F6314310
:10042000134E7160F0BD30B500228B071C0F0F23F7
:1004300003FA04F20E4B08338C1053F82430934324
:100440000B4C08348D1044F8253023468C1053F89B
:1004500024308C07240F00FA04F42343044C08349E
:100460008D1044F8253030BD0014014000F8FEBF67
:100470000000014000002042E048006840F0010018
:10048000DE49086008464068DD490840DB494860AD
:1004900008460068DB490840D849086008460068FB
:1004A00020F4802008600846406820F4FE00486080
:1004B000002088607047D149096821F48031CF4A13
:1004C00011601146096821F480211160B0F5803F68
:1004D00003D0B0F5802F0ED106E0C849096841F479
:1004E0008031C64A116007E0C449096841F4A0217F
:1004F000C24A116000E000BF00BF704710B501465E
:100500000022002300204A11012A02D1BB4C23689B
:1005100006E0022A02D1B94C236A01E0B74C636AB3
:1005200001F01F02012494401C400CB1012000E0A6
:10053000002010BD10B5002400BF3120FFF7DEFF02
:10054000B1490870B1480068401CB0490860AE4825
:10055000007828B90846006840F2FF118842ECD1C3
:100560003120FFF7CBFF08B1012400E00024204632
:1005700010BD01460020A14A106820F0F80040EAB2
:10058000C10010607047A249086070470246002011
:100590009A4B586820F47C1042EA01031843974BA9
:1005A000586070479A490866704701460020934A90
:1005B000506820F003000843506070478F4840683F
:1005C00000F00C007047014600208C4A506820F073
:1005D000F00008435060704701460020874A506889
:1005E00020F4E06008435060704701460020834AD1
:1005F000506820F4605040EAC1005060704729B153
:100600007E4A527A02437D4B5A7204E07B4A527A08
:1006100082437A4B5A7270477D49D83108607047DF
:1006200001460020754A506820F44040084350605D
:1006300070470021714A20321170704A82F82010F0
:10064000012802D004280AD104E001216B4A20329B
:10065000117005E00521694A2032117000E000BFE9
:1006600000BF70476B49086070476449096A0143DD
:10067000624A11627047674944390860704730B573
:1006800000210022002400235C4D6D6805F00C0160
:1006900021B1042905D0082923D105E05E4D05606C
:1006A00022E05D4D05601FE0544D6D6805F4701249
:1006B000022505EB9242514D6D6805F480341CB95A
:1006C000564D554305600BE04C4D6D6805F4003503
:1006D0001DB1524D5543056002E04F4D5543056035
:1006E00002E04D4D056000BF00BF444D6D6805F050
:1006F000F00109094A4D6B5C0568DD4045603F4DDE
:100700006D6805F4E061090A454D6B5C4568DD40A4
:1007100085603A4D6D6805F46051C90A404D6B5CC7
:100720004568DD40C560354D6D6805F44041890B75
:100730003C4D6B5CC568B5FBF3F5056130BD29B177
:100740002E4A526902432D4B5A6104E02B4A5269EA
:1007500082432A4B5A61704729B1284A9269024361
:10076000264B9A6104E0254A92698243234B9A61A1
:10077000704729B1214AD2690243204BDA6104E073
:100780001E4AD26982431D4BDA61704729B11B4A68
:10079000D2680243194BDA6004E0184AD2688243F7
:1007A000164BDA60704729B1144A12690243134BA1
:1007B0001A6104E0114A12698243104B1A617047B2
:1007C00014494039086070471149C86470470B49A3
:1007D000C87170470948406A40F080700749486214
:1007E000704701460020054A92680A400AB101207C
:1007F00000E00020704701498872704700100240F5
:100800000000FFF8FFFFF6FE00A0002004A000207B
:10081000000042428004424200127A0000093D007A
:100820004E1300205E130020FD49096801F03801D5
:10083000FB4A116011460968014311607047F8498D
:10084000096821F00801F64A116011460968014360
:1008500011607047F249096821F01001F04A1160F7
:1008600011460968014311607047EE48EC49486041
:10087000ED4848607047EA48006940F08000E84968
:10088000086170470420E649C96801F0010109B117
:1008900001200EE0E249C96801F0040109B102201B
:1008A00007E0DF49C96801F0100109B1032000E049
:1008B0000420704708B500200090FF20009002E05F
:1008C0000098401E009000980028F9D108BD70B52E
:1008D00004460425FFF7D6FF054605E0FFF7EAFFCB
:1008E000FFF7D0FF0546641E012D01D1002CF5D184
:1008F00004B90525284670BD70B50546042440F6A8
:10090000FF70FFF7E4FF0446042C19D1C4480069C6
:1009100040F00200C249086108464561006940F0A4
:100920004000086140F6FF70FFF7D1FF0446012C3C
:1009300006D0BB48006941F6FD710840B84908611E
:10094000204670BD10B5042440F6FF70FFF7BFFFCE
:100950000446042C18D1B248006940F00400B049A4
:1009600008610846006940F04000086140F6FF70E9
:10097000FFF7ADFF0446012C06D0A948006941F6F7
:10098000FB710840A6490861204610BD10B504243B
:1009900040F6FF70FFF79BFF0446042C3BD1A148B3
:1009A0009F498860A04888600846006940F02000A0
:1009B00008610846006940F04000086140F6FF7099
:1009C000FFF785FF0446042C1CD19548006941F6C9
:1009D000DF710840924908610846006940F0100044
:1009E0000861A520914908800F20FFF770FF044699
:1009F000012C10D08A48006941F6EF7108408849FF
:100A0000086108E0012C06D08548006941F6EF71C5
:100A1000084083490861204610BD70B505460E4662
:100A200004240F20FFF753FF0446042C25D17C48F3
:100A3000006940F001007A4908612E800F20FFF71D
:100A400046FF0446042C0FD1300C68800F20FFF7BE
:100A50003EFF0446012C10D07148006941F6FE713A
:100A600008406F49086108E0012C06D06C48006915
:100A700041F6FE7108406A490861204670BD70B5B4
:100A800005460E4604240F20FFF721FF0446042CE0
:100A900013D16348006940F00100614908612E806C
:100AA0000F20FFF714FF0446012C06D05C480069B4
:100AB00041F6FE7108405A490861204670BD70B584
:100AC00005460E4604240F20FFF701FF0446042CC0
:100AD00017D15448524988605348886008460069D5
:100AE00040F0100008612E800F20FFF7F0FE044652
:100AF000012C06D04A48006941F6EF710840484988
:100B00000861204670BD2DE9F04704464FF6FF7698
:100B10003746B046B1460425E443E6B2C4F307279E
:100B2000C4F307484FEA14690F20FFF7D0FE0546CB
:100B3000042D40D13B483A4988603B4888600846CC
:100B4000006940F010000861FF2E06D037480830D9
:100B500006800F20FFF7BBFE0546042D08D1FF2FAE
:100B600006D032480A3007800F20FFF7B0FE054656
:100B7000042D0AD1B8F1FF0F07D02C480C30A0F893
:100B800000800F20FFF7A3FE0546042D0AD1B9F11E
:100B9000FF0F07D025480E30A0F800900F20FFF778
:100BA00096FE0546012D06D01D48006941F6EF71FD
:100BB00008401B4908612846BDE8F08770B5054626
:100BC000042440F6FF70FFF782FE0446042C4AD14D
:100BD000144813498860144888600846006940F04A
:100BE000200008610846006940F04000086140F6B6
:100BF000FF70FFF76CFE0446042C2BD108480069F7
:100C000041F6DF710840064908610846006940F076
:100C10001000086165B10020044908800BE0000065
:100C20000020024023016745AB89EFCD00F8FF1F8C
:100C3000A5204549088040F6FF70FFF748FE0446AE
:100C4000012C10D04148006941F6EF7108403F493E
:100C5000086108E0012C06D03C48006941F6DF71CC
:100C600008403A490861204670BD2DE9F041074629
:100C70000D46164604243648344988603548886055
:100C80000F20FFF724FE0446042C1AD12F480069D8
:100C900040F010002D49086147EA0500304340F05C
:100CA000F8002949891C08800F20FFF710FE044630
:100CB000012C06D02548006941F6EF710840234910
:100CC00008612046BDE8F0812048C069800870476F
:100CD0001E48006A704700201C49C96901F00201E2
:100CE00009B1012000E00020704700201749096881
:100CF00001F0200109B1012000E00020704729B176
:100D0000124A12690243114B1A6104E00F4A126938
:100D100082430E4B1A61704701460020012908D119
:100D20000A4AD26902F001020AB1012008E000205B
:100D300006E0064AD2680A400AB1012000E000201D
:100D400070470249C860704700F8FF1F002002404A
:100D500023016745AB89EFCD704700BFFEE700BFB9
:100D6000FEE700BFFEE700BFFEE770477047704731
:100D700070477047704770477047704770477047BB
:100D800070477047704770477047704770477047AB
:100D9000704770477047704770477047704770479B
:100DA000704770477047704770477047704770478B
:100DB000704770477047704770477047704770477B
:100DC000704770477047704770477047704770476B
:100DD000704770477047704770477047704770475B
:100DE00070477047704770477047000010B5044661
:100DF000D749601A8C422BD006DCD648204498B1E3
:100E0000B0F5806F38D119E0B0F5806F2AD0B0F519
:100E10006C4F31D101218803FFF7B8FC00214FF45A
:100E20008040FFF7B3FC28E001214804FFF7BBFC3A
:100E300000214FF40030FFF7B6FC1EE001218804CA
:100E4000FFF7B1FC00214FF48020FFF7ACFC14E069
:100E50000121C804FFF7A7FC00214FF40020FFF791
:100E6000A2FC0AE001210805FFF79DFC00214FF4D8
:100E70008010FFF798FC00E000BF00BF10BD2DE917
:100E8000F04786B005460E460024A24600BF00BFCC
:100E900000272F462C8A4CF6FF700440F08804434C
:100EA0002C82AC894EF6F3100440B0883189084397
:100EB000718908430443AC81AC8A4FF6FF4004407B
:100EC000B0890443AC8201A8FFF7D9FBA24887424E
:100ED00002D1DDF810A001E0DDF80CA00AEBCA0099
:100EE00000EB0A1031688900B0FBF1F86420B8FB10
:100EF000F0F004012009642101FB1089322000EB8D
:100F00000910B0FBF1F000F00F0004432C8106B093
:100F1000BDE8F0874FF41651016000218180C18047
:100F200001810C21418100218181704710B5024669
:100F30000020108A4FF2FF0318400B884C8823438F
:100F40008C882343CC8823431843108210BD002192
:100F5000018041808180C180704721B1828942F443
:100F60000052828104E082894DF6FF731A4082812B
:100F70007047F0B5034600240026002500201846DF
:100F8000C1F3421401F01F06012707FA06F5012CF0
:100F900001D10C3004E0022C01D1103000E01430FB
:100FA0001AB107682F43076002E00768AF43076084
:100FB000F0BD1AB1838A0B43838202E0838A8B439C
:100FC00083827047028A4FF6F0731A400282028AC7
:100FD0000A430282704782894FF2FF731A4082816E
:100FE00082890A438281704721B1828942F00202DC
:100FF000828104E082894FF6FD731A408281704736
:10100000028A4FF6DF731A400282028A0A43028282
:10101000704721B1028A42F48042028204E0028ACF
:101020004BF6FF731A4002827047C1F308028280B8
:10103000704701468888C0F308007047818941F0F5
:10104000010181817047028BD2B20283028B42EA96
:10105000012202837047028B02F47F420283028BDB
:101060000A430283704721B1828A42F020028282C1
:1010700004E0828A4FF6DF731A408282704721B102
:10108000828A42F01002828204E0828A4FF6EF7375
:101090001A408282704721B1828A42F0080282821D
:1010A00004E0828A4FF6F7731A4082827047828A80
:1010B0004FF6FB731A408282828A0A43828270470B
:1010C00021B1828A42F00202828204E0828A4FF6D3
:1010D000FD731A40828270470246002013880B403D
:1010E0000BB1012000E000207047CA430280704726
:1010F00070B502460B460024002100250020C3F3F2
:10110000421503F01F01012606FA01F1012D02D15B
:101110009689314006E0022D02D1168A314001E065
:10112000968A31401C12012606FA04F416883440CF
:1011300011B10CB1012000E0002070BD10B50022FB
:1011400000230A1201249440A3B2DC43048010BDA2
:10115000004C004000BCFFBF00380140002108E007
:101160004FF47A7201E0531E9AB2002AFBDC4B1C4A
:1011700099B28142F4DB704708B5A320ADF80000B6
:1011800003208DF8020010208DF8030069465C48AA
:10119000FFF744F84020ADF8000003208DF802006E
:1011A00004208DF8030069465548FFF737F84FF4DF
:1011B0008070ADF8000003208DF8020010208DF83B
:1011C000030069464F48FFF729F808BD10B5FFF73F
:1011D00053F94FF48030FFF76EF900BF3120FFF76D
:1011E0008DF90028FAD01020FFF734FB0220FFF71A
:1011F0001BFB0020FFF7E7F90020FFF7F6F94FF49B
:101200008060FFF7E9F94FF4E0114FF48030FFF709
:10121000BDF90120FFF7C6F900BF3920FFF76EF9CD
:101220000028FAD00220FFF7C0F900BFFFF7C6F987
:101230000828FBD101210520FFF78EFA012188043F
:10124000FFF797FA01215820FFF786FA10BD70B515
:101250002524FFF7BBFFFFF78FFF4FF4807129486C
:10126000FFF78AF801212648FFF786F800251DE0E0
:101270000220FFF773FF04F0800020B9802120488E
:10128000FFF77AF803E080211D48FFF773F820216B
:101290001B48FFF771F80520FFF760FF2021184871
:1012A000FFF768F86006040E681CC5B2082DDFDB86
:1012B00002211348FFF760F80520FFF74FFF0221D6
:1012C0000F48FFF757F8002070BD1FB54FF41650B8
:1012D00000900020ADF80400ADF80600ADF808005D
:1012E0000C20ADF80A000020ADF80C006946064855
:1012F000FFF7C5FD01210448FFF72FFE1FBD0000C9
:10130000000801400010014000480040064C074D15
:1013100006E0E06840F0010394E8070098471034C5
:10132000AC42F6D3FEF708FF6413002084130020BC
:1013300002E008C8121F08C1002AFAD1704770479E
:10134000002001E001C1121F002AFBD170470000FC
:101350000000010203040102030406070809020455
:10136000060800008413002000A0002008000000F0
:10137000301300208C13002008A00020000400007F
:0C138000401300200000000000000000EE
:0400000520000131A5
:00000001FF
