:020000042000DA
:100000000084002045010020B7010020A701002046
:10001000B301002075010020FD0100200000000058
:10002000000000000000000000000000CB010020E4
:100030009301002000000000BB010020CD01002042
:1000400001020020B9010020CF010020C1010020E1
:10005000A3010020BD01002095010020990100208E
:100060009B0100209D0100209F0100207D010020B8
:100070007F010020810100208301002085010020F4
:10008000870100208901002071010020F901002072
:10009000FB010020790100207B010020A10100204C
:1000A000D1010020D7010020D5010020D30100207C
:1000B000D9010020DB010020DD010020AD0100207E
:1000C000AB010020B1010020AF010020C5010020DC
:1000D000C7010020F1010020F3010020F5010020FC
:1000E00097010020BF010020F7010020E50100205A
:1000F000EB010020E9010020E7010020730100204E
:10010000A5010020C3010020DF010020C90100205B
:10011000ED010020EF010020E1010020E3010020BB
:100120008B0100208D0100208F0100209101002013
:10013000DFF80CD000F00AF8004800472102002048
:10014000008400200048004731010020064C074D84
:1001500006E0E06840F0010394E807009847103497
:10016000AC42F6D3FFF7E8FF24020020340200205F
:100170007047704700BFFEE7704770477047704791
:1001800070477047704770477047704770477047B7
:1001900070477047704770477047704770477047A7
:1001A00070477047704700BFFEE770477047704761
:1001B000704700BFFEE77047704770477047704751
:1001C0007047704770477047704770477047704777
:1001D0007047704770477047704770477047704767
:1001E0007047704770477047704770477047704757
:1001F00070477047704770477047704700BFFEE711
:10020000704702E008C8121F08C1002AFAD17047DF
:100210007047002001E001C1121F002AFBD1704786
:1002200001207047340200200080002000040000FC
:040230001202002096
:0400000520000131A5
:00000001FF
