:020000040800F2
:100000001004002045010008290800082B080008FA
:100010002F08000833080008370800080000000017
:100020000000000000000000000000003D08000883
:100030003B080008000000003F08000841080008D5
:100040004308000845080008470800084908000858
:100050004B0800084D0800084F0800085108000828
:1000600053080008550800085708000859080008F8
:100070005B0800085D0800085F08000861080008C8
:100080006308000865080008670800086908000898
:100090006B0800086D0800086F0800087108000868
:1000A0007308000875080008770800087908000838
:1000B0007B0800087D0800087F0800088108000808
:1000C00083080008850800088708000889080008D8
:1000D0008B0800088D0800088F08000891080008A8
:1000E0009308000895080008970800089908000878
:1000F0009B0800089D0800089F080008A108000848
:10010000A3080008A5080008A7080008A908000817
:10011000AB080008AD080008AF080008B1080008E7
:10012000B3080008B5080008B7080008B9080008B7
:10013000DFF80CD000F08AFE00480047110D0008DF
:1001400010040020004800473101000810B50446A3
:10015000C549601A8C422FD009DCC448204480B1C4
:10016000B0F5806F16D0B0F5006F4AD11BE0B0F546
:10017000806F2AD0B0F5006F30D0B0F5406F40D11D
:1001800035E00121042000F001FB0021042000F0F3
:10019000FDFA37E00121082000F0F8FA00210820DC
:1001A00000F0F4FA2EE00121102000F0EFFA002117
:1001B000102000F0EBFA25E00121202000F0E6FA03
:1001C0000021202000F0E2FA1CE00121402000F094
:1001D000DDFA0021402000F0D9FA13E0012180204F
:1001E00000F0D4FA0021802000F0D0FA0AE00121CA
:1001F000080200F0CBFA00214FF4807000F0C6FA3C
:1002000000E000BF00BF10BD10B50121084600F09E
:10021000BDFA0021012000F0B9FA10BD2DE9F0412E
:10022000024600250026002000230024002791F824
:1002300003C00CF00F0591F803C00CF0100CBCF1DA
:10024000000F03D091F802C04CEA050591F800C0F8
:10025000BCF1000F30D0146800202AE04FF0010CF0
:100260000CFA00F3B1F800C00CEA03069E421FD15D
:1002700083004FF00F0C0CFA03F7BC4305FA03FCA4
:100280004CEA040491F803C0BCF1280F05D14FF0EB
:10029000010C0CFA00FCC2F814C091F803C0BCF1C8
:1002A000480F05D14FF0010C0CFA00FCC2F810C049
:1002B000401C0828D2D31460B1F800C0BCF1FF0F75
:1002C00034DD546800202EE000F1080C4FF00108E6
:1002D00008FA0CF3B1F800C00CEA03069E4221D1E3
:1002E00083004FF00F0C0CFA03F7BC4305FA03FC34
:1002F0004CEA040491F803C0BCF1280F05D100F1C9
:10030000080C08FA0CF8C2F8148091F803C0BCF18C
:10031000480F07D100F1080C4FF0010808FA0CF85B
:10032000C2F81080401C0828CED35460BDE8F0818C
:100330004FF6FF710180022181700421C170704766
:100340000246002093680B400BB1012000E0002022
:1003500070470146886880B2704702460020D36823
:100360000B400BB1012000E0002070470146C86837
:1003700080B2704701617047416170470AB1016105
:1003800000E041617047C16070474FF480320A431A
:1003900082618161826182698269704702460020C0
:1003A000334B18684FF68073184040EA0210084338
:1003B0002F4B186070472F49C8617047F0B50A4647
:1003C0000023002400210025294E7168C0F3034555
:1003D00083B200F44016B6F5401F08D121F07061D9
:1003E000234E766826F07066214F7E6012E000F49E
:1003F0008016B6F5801F06D1032606FA05F4A14340
:1004000041F0706106E0460D360103FA06F6B1438D
:1004100041F0706122B1460D360103FA06F6314310
:10042000134E7160F0BD30B500228B071C0F0F23F7
:1004300003FA04F20E4B08338C1053F82430934324
:100440000B4C08348D1044F8253023468C1053F89B
:1004500024308C07240F00FA04F42343044C08349E
:100460008D1044F8253030BD0014014000F8FEBF67
:100470000000014000002042E048006840F0010018
:10048000DE49086008464068DD490840DB494860AD
:1004900008460068DB490840D849086008460068FB
:1004A00020F4802008600846406820F4FE00486080
:1004B000002088607047D149096821F48031CF4A13
:1004C00011601146096821F480211160B0F5803F68
:1004D00003D0B0F5802F0ED106E0C849096841F479
:1004E0008031C64A116007E0C449096841F4A0217F
:1004F000C24A116000E000BF00BF704710B501465E
:100500000022002300204A11012A02D1BB4C23689B
:1005100006E0022A02D1B94C236A01E0B74C636AB3
:1005200001F01F02012494401C400CB1012000E0A6
:10053000002010BD10B5002400BF3120FFF7DEFF02
:10054000B1490870B1480068401CB0490860AE4825
:10055000007828B90846006840F2FF118842ECD1C3
:100560003120FFF7CBFF08B1012400E00024204632
:1005700010BD01460020A14A106820F0F80040EAB2
:10058000C10010607047A249086070470246002011
:100590009A4B586820F47C1042EA01031843974BA9
:1005A000586070479A490866704701460020934A90
:1005B000506820F003000843506070478F4840683F
:1005C00000F00C007047014600208C4A506820F073
:1005D000F00008435060704701460020874A506889
:1005E00020F4E06008435060704701460020834AD1
:1005F000506820F4605040EAC1005060704729B153
:100600007E4A527A02437D4B5A7204E07B4A527A08
:1006100082437A4B5A7270477D49D83108607047DF
:1006200001460020754A506820F44040084350605D
:1006300070470021714A20321170704A82F82010F0
:10064000012802D004280AD104E001216B4A20329B
:10065000117005E00521694A2032117000E000BFE9
:1006600000BF70476B49086070476449096A0143DD
:10067000624A11627047674944390860704730B573
:1006800000210022002400235C4D6D6805F00C0160
:1006900021B1042905D0082923D105E05E4D05606C
:1006A00022E05D4D05601FE0544D6D6805F4701249
:1006B000022505EB9242514D6D6805F480341CB95A
:1006C000564D554305600BE04C4D6D6805F4003503
:1006D0001DB1524D5543056002E04F4D5543056035
:1006E00002E04D4D056000BF00BF444D6D6805F050
:1006F000F00109094A4D6B5C0568DD4045603F4DDE
:100700006D6805F4E061090A454D6B5C4568DD40A4
:1007100085603A4D6D6805F46051C90A404D6B5CC7
:100720004568DD40C560354D6D6805F44041890B75
:100730003C4D6B5CC568B5FBF3F5056130BD29B177
:100740002E4A526902432D4B5A6104E02B4A5269EA
:1007500082432A4B5A61704729B1284A9269024361
:10076000264B9A6104E0254A92698243234B9A61A1
:10077000704729B1214AD2690243204BDA6104E073
:100780001E4AD26982431D4BDA61704729B11B4A68
:10079000D2680243194BDA6004E0184AD2688243F7
:1007A000164BDA60704729B1144A12690243134BA1
:1007B0001A6104E0114A12698243104B1A617047B2
:1007C00014494039086070471149C86470470B49A3
:1007D000C87170470948406A40F080700749486214
:1007E000704701460020054A92680A400AB101207C
:1007F00000E00020704701498872704700100240F5
:100800000000FFF8FFFFF6FE0000002004000020BB
:10081000000042428004424200127A0000093D007A
:100820000410000814100008704700BFFEE700BF66
:10083000FEE700BFFEE700BFFEE770477047704766
:1008400070477047704770477047704770477047F0
:1008500070477047704770477047704770477047E0
:1008600070477047704770477047704770477047D0
:1008700070477047704770477047704770477047C0
:1008800070477047704770477047704770477047B0
:1008900070477047704770477047704770477047A0
:1008A0007047704770477047704770477047704790
:1008B00070477047704770477047000010B5044696
:1008C000D749601A8C422BD006DCD648204498B118
:1008D000B0F5806F38D119E0B0F5806F2AD0B0F54F
:1008E0006C4F31D101218803FFF750FF00214FF4F5
:1008F0008040FFF74BFF28E001214804FFF753FF3A
:1009000000214FF40030FFF74EFF1EE00121880464
:10091000FFF749FF00214FF48020FFF744FF14E068
:100920000121C804FFF73FFF00214FF40020FFF72B
:100930003AFF0AE001210805FFF735FF00214FF4D7
:100940008010FFF730FF00E000BF00BF10BD2DE9B1
:10095000F04786B005460E460024A24600BF00BF01
:1009600000272F462C8A4CF6FF700440F088044381
:100970002C82AC894EF6F3100440B08831890843CC
:10098000718908430443AC81AC8A4FF6FF400440B0
:10099000B0890443AC8201A8FFF771FEA2488742E8
:1009A00002D1DDF810A001E0DDF80CA00AEBCA00CE
:1009B00000EB0A1031688900B0FBF1F86420B8FB45
:1009C000F0F004012009642101FB1089322000EBC2
:1009D0000910B0FBF1F000F00F0004432C8106B0C9
:1009E000BDE8F0874FF41651016000218180C1807D
:1009F00001810C21418100218181704710B502469F
:100A00000020108A4FF2FF0318400B884C882343C4
:100A10008C882343CC8823431843108210BD0021C7
:100A2000018041808180C180704721B1828942F478
:100A30000052828104E082894DF6FF731A40828160
:100A40007047F0B503460024002600250020184614
:100A5000C1F3421401F01F06012707FA06F5012C25
:100A600001D10C3004E0022C01D1103000E0143030
:100A70001AB107682F43076002E00768AF430760B9
:100A8000F0BD1AB1838A0B43838202E0838A8B43D1
:100A900083827047028A4FF6F0731A400282028AFC
:100AA0000A430282704782894FF2FF731A408281A3
:100AB00082890A438281704721B1828942F0020211
:100AC000828104E082894FF6FD731A40828170476B
:100AD000028A4FF6DF731A400282028A0A430282B8
:100AE000704721B1028A42F48042028204E0028A05
:100AF0004BF6FF731A4002827047C1F308028280EE
:100B0000704701468888C0F308007047818941F02A
:100B1000010181817047028BD2B20283028B42EACB
:100B2000012202837047028B02F47F420283028B10
:100B30000A430283704721B1828A42F020028282F6
:100B400004E0828A4FF6DF731A408282704721B137
:100B5000828A42F01002828204E0828A4FF6EF73AA
:100B60001A408282704721B1828A42F00802828252
:100B700004E0828A4FF6F7731A4082827047828AB5
:100B80004FF6FB731A408282828A0A438282704740
:100B900021B1828A42F00202828204E0828A4FF608
:100BA000FD731A40828270470246002013880B4072
:100BB0000BB1012000E000207047CA43028070475B
:100BC00070B502460B460024002100250020C3F327
:100BD000421503F01F01012606FA01F1012D02D191
:100BE0009689314006E0022D02D1168A314001E09B
:100BF000968A31401C12012606FA04F41688344005
:100C000011B10CB1012000E0002070BD10B5002230
:100C100000230A1201249440A3B2DC43048010BDD7
:100C2000004C004000BCFFBF003801401FB5044627
:100C300000940020ADF80400ADF80600ADF80800FF
:100C4000ADF80C000C20ADF80A0069466648FFF7C5
:100C50007EFE01216448FFF7E8FE1FBD10B5FFF7D7
:100C60000BFC4FF48030FFF726FC00BF3120FFF76C
:100C700045FC0028FAD00020FFF7A5FC0020FFF774
:100C8000B4FC4FF48060FFF7A7FC4FF4E0114FF481
:100C90008030FFF77BFC0120FFF784FC00BF392088
:100CA000FFF72CFC0028FAD00220FFF77EFC00BFE3
:100CB000FFF784FC0828FBD101210420FFF74CFD3D
:100CC00001211020FFF748FD01210846FFF744FDF0
:100CD00001218803FFF740FD10BD08B54FF40070F7
:100CE000ADF8000003208DF8020018208DF80300F5
:100CF00069463E48FFF792FA4FF48060ADF8000075
:100D000004208DF8030069463848FFF787FA08BDCC
:100D100070B5FFF7E2FFFFF7A1FF44F69040FFF741
:100D200085FF412500240EE029462F48FFF7E5FE08
:100D3000681CC5B200BF40212B48FFF735FF0028D3
:100D4000F9D0601CC4B21E2CEEDB29A000F090F894
:100D5000412529462AA000F08BF8002070BD70B50F
:100D600004460D46A1B22048FFF7C7FE00BF402150
:100D70001D48FFF719FF0028F9D0204670BD00215B
:100D800008E04FF47A7201E0531E9AB2002AFBDCAD
:100D90004B1C99B28142F4DB704730B50446F22413
:100DA00001201C49086000251AE00120FFF7E7FF39
:100DB00004F0010018B101201749086002E000208A
:100DC0001549086000201449091D08600120FFF73B
:100DD000D6FF01201149C1F884016410681CC5B216
:100DE000082DE2DB30BD0000003801400008014062
:100DF0000A7777772E62616964752E636F6D0000E4
:100E00000A095468652076616C7565206973202530
:100E100064000000808121428001214200002142C3
:100E200030B50B46014600202022012409E021FABA
:100E300002F59D4205D303FA02F5491B04FA02F5B7
:100E40002844151EA2F10102F1DC30BD064C074D0D
:100E500006E0E06840F0010394E80700984710348A
:100E6000AC42F6D3FFF768F91810000838100008F4
:100E70000FB4054B10B503A9044A029800F018F806
:100E800010BC5DF814FB00005F0D00080800002096
:100E900002E008C8121F08C1002AFAD17047704743
:100EA000002001E001C1121F002AFBD170470000A1
:100EB0002DE9FF4F89B09B460446002506E0252812
:100EC0000BD05A460B999047641C6D1C2078002863
:100ED000F5D10DB02846BDE8F08F0027B8460122B5
:100EE000474900E0074314F8013F203B02FA03F0B2
:100EF0000842F7D120782E2819D114F8010F47F0B5
:100F000004072A280ED06FF02F022078A0F13001BC
:100F100009290CD808EB880102EB410100EB01081C
:100F2000641CF2E70A98641C50F8048B0A9020783D
:100F30000028CED0642808D0692806D075281ED095
:100F40005A460B9990476D1C58E00A994FF00A09D0
:100F500001C90A91002802DA40422D2102E0390538
:100F600004D52B218DF82010012103E0F90704D0CE
:100F70002021F7E78A4608AE0DE00021FAE70A993A
:100F80004FF00A0901C90A91F7E74946FFF748FF00
:100F9000303106F8011D0028F7D1ADEB060000F155
:100FA0002009780701D44FF00108C84502DDA8EBFD
:100FB000090000E000208046002706E008A85A4605
:100FC000C05D0B9990476D1C7F1C5745F6DB04E014
:100FD00030205A460B9990476D1CB8F10001A8F1DA
:100FE0000108F5DC05E016F8010B5A460B9990470D
:100FF0006D1CB9F10001A9F10109F4DC641C65E77D
:10100000092801000000000001020304010203049A
:10101000060708090204060838100008000000202E
:101020000C000000900E0008441000080C00002086
:1010300004040000A00E00080000000000000000F2
:0410400000000000AC
:0400000508000131BD
:00000001FF
