:020000040800F2
:1000000060080020B1010008D5010008D7010008F0
:10001000DB010008DF010008E30100080000000028
:10002000000000000000000000000000E9010008DE
:10003000E701000800000000EB010008ED010008E6
:10004000EF010008F1010008F3010008F5010008C4
:10005000F7010008F9010008FB010008FD01000894
:10006000FF01000801020008030200080502000861
:1000700007020008090200080B0200080D02000830
:100080000F02000811020008130200081502000800
:1000900017020008190200081B0200081D020008D0
:1000A0001F020008210200082302000825020008A0
:1000B00027020008290200082B0200082D02000870
:1000C0002F02000831020008330200083502000840
:1000D00037020008390200083B0200083D02000810
:1000E0003F020008410200084302000845020008E0
:1000F00047020008490200084B0200084D020008B0
:100100004F0200085102000853020008550200087F
:1001100057020008590200085B0200085D0200084F
:100120005F0200086102000863020008650200081F
:1001300000F002F800F02CF80AA090E8000C8244CD
:100140008344AAF10107DA4501D100F021F8AFF2AA
:10015000090EBAE80F0013F0010F18BFFB1A43F0A5
:1001600001031847800100009001000000230024D3
:1001700000250026103A28BF78C1FBD8520728BFB7
:1001800030C148BF0B6070471FB51FBD10B510BD13
:1001900000F06EF81146FFF7F7FF00F064F800F08A
:1001A0008CF803B4FFF7F2FF03BC00F093F80000F3
:1001B0000348004703480449044A054B70470000C0
:1001C0003101000860000020600800206004002069
:1001D00060040020704700BFFEE700BFFEE700BFDD
:1001E000FEE700BFFEE770477047704770477047F3
:1001F0007047704770477047704770477047704747
:100200007047704770477047704770477047704736
:100210007047704770477047704770477047704726
:100220007047704770477047704770477047704716
:100230007047704770477047704770477047704706
:1002400070477047704770477047704770477047F6
:1002500070477047704770477047704770477047E6
:10026000704770477047012070477047704770476C
:10027000754600F02BF8AE4605006946534620F05F
:100280000700854618B020B5FFF794FFBDE8204071
:100290004FF000064FF000074FF000084FF0000B42
:1002A00021F00701AC46ACE8C009ACE8C009ACE8F5
:1002B000C009ACE8C0098D46704710B50446AFF3DD
:1002C00000802046BDE81040FFF76BBF0048704734
:1002D0000000002001491820ABBEFEE72600020006
:1002E00070470000F40200080000002060080000D1
:0402F0006C01000895
:0400000508000131BD
:00000001FF
