:020000042000DA
:1000000000A4002045010020A50300209503002046
:10001000A103002075010020DB0700200000000084
:10002000000000000000000000000000B5060020F5
:100030009301002000000000A9030020B706002063
:10004000DF070020A7030020B9060020AB06002030
:10005000BF01002035060020B1010020B5010020BD
:10006000B7010020B9010020BB0100207D01002064
:100070007F010020810100208301002085010020F4
:10008000870100208901002071010020D70700208E
:10009000D9070020790100207B010020BD0100204C
:1000A000BB060020C1060020BF060020BD060020C0
:1000B000C3060020C5060020C70600209B030020C1
:1000C000990300209F0300209D030020AF0600201D
:1000D000B1060020DB060020DD0600201507002009
:1000E000B3010020A9060020D5070020CF0600207C
:1000F000D5060020D3060020D10600207301002081
:10010000C1010020AD060020C9060020B306002072
:10011000D7060020D9060020CB060020CD060020FF
:100120008B0100208D0100208F0100209101002013
:10013000DFF80CD000F00AF8004800470108002062
:1001400000A400200048004731010020064C074D64
:1001500006E0E06840F0010394E807009847103497
:10016000AC42F6D3FFF7E8FF6808002078080020CB
:100170007047704700BFFEE7704770477047704791
:1001800070477047704770477047704770477047B7
:1001900070477047002108E04FF47A7201E0531E67
:1001A0009AB2002AFBDC4B1C99B28142F4DB704707
:1001B0007047704770477047704770477047704787
:1001C0007047000008B54FF48060ADF800000320D0
:1001D0008DF8020018208DF8030069460A4800F0E7
:1001E00017F84FF40060ADF8000003208DF802000E
:1001F00018208DF803006946034800F009F8012132
:10020000024800F08FF808BD0010014010001400F3
:100210002DE9F0410246002500260020002300249D
:10022000002791F803C00CF00F0591F803C00CF003
:10023000100CBCF1000F03D091F802C04CEA050588
:1002400091F800C0BCF1000F30D0146800202AE003
:100250004FF0010C0CFA00F3B1F800C00CEA0306F1
:100260009E421FD183004FF00F0C0CFA03F7BC43E2
:1002700005FA03FC4CEA040491F803C0BCF1280F12
:1002800005D14FF0010C0CFA00FCC2F814C091F833
:1002900003C0BCF1480F05D14FF0010C0CFA00FC73
:1002A000C2F810C0401C0828D2D31460B1F800C0B6
:1002B000BCF1FF0F34DD546800202EE000F1080C83
:1002C0004FF0010808FA0CF3B1F800C00CEA03067D
:1002D0009E4221D183004FF00F0C0CFA03F7BC4370
:1002E00005FA03FC4CEA040491F803C0BCF1280FA2
:1002F00005D100F1080C08FA0CF8C2F8148091F846
:1003000003C0BCF1480F07D100F1080C4FF0010801
:1003100008FA0CF8C2F81080401C0828CED35460AC
:10032000BDE8F081F0B50A46002300240021002535
:10033000174E7168C0F3034583B200F44016B6F55A
:10034000401F08D121F07061114E766826F070666A
:100350000F4F7E6012E000F48016B6F5801F06D1C4
:10036000032606FA05F4A14341F0706106E0460D4C
:10037000360103FA06F6B14341F0706122B1460D31
:10038000360103FA06F63143014E7160F0BD0000FC
:100390000000014000BFFEE770477047704770479C
:1003A00000BFFEE7704770477047000029B1064A5A
:1003B000D2690243044BDA6104E0034AD269824302
:1003C000014BDA61704700000010024029B1064A73
:1003D00092690243044B9A6104E0034A92698243A2
:1003E000014B9A61704700000010024010B500F008
:1003F00039F84FF4803000F0F7F800BF312000F0FA
:10040000C1F80028FAD0002000F0E2F8002000F047
:100410001FF94FF4806000F00FF94FF4E0114FF432
:10042000803000F027F9012000F01EF900BF3920CC
:1004300000F0A8F80028FAD0022000F029F900BF47
:1004400000F0BEF80828FBD101211020FFF7BEFF05
:1004500001210846FFF7BAFF01218804FFF7A6FF34
:1004600010BD00000F48006840F001000D49086011
:10047000084640680C4908400A4948600846006838
:100480000A490840074908600846006820F48020AF
:1004900008600846406820F4FE004860002088603C
:1004A00070470000001002400000FFF8FFFFF6FE5A
:1004B00030B500210022002400232D4D6D6805F089
:1004C0000C0121B1042905D0082923D105E0294DCB
:1004D000056022E0274D05601FE0254D6D6805F49D
:1004E0007012022505EB9242214D6D6805F48034AF
:1004F0001CB9214D554305600BE01D4D6D6805F499
:1005000000351DB11C4D5543056002E0194D5543A2
:10051000056002E0174D056000BF00BF144D6D6817
:1005200005F0F0010909154D6B5C0568DD4045607B
:100530000F4D6D6805F4E061090A104D6B5C45686C
:10054000DD4085600A4D6D6805F46051C90A0B4DA8
:100550006B5C4568DD40C560054D6D6805F4404144
:10056000890B074D6B5CC568B5FBF3F5056130BDC4
:100570000010024000127A0000093D0054080020DB
:100580006408002010B501460022002300204A1113
:10059000012A02D1094C236806E0022A02D1074C45
:1005A000236A01E0054C636A01F01F0201249440B4
:1005B0001C400CB1012000E0002010BD00100240E2
:1005C0000248406800F00C00704700000010024034
:1005D00001460020034A506820F0F00008435060B4
:1005E00070470000001002401149096821F4803171
:1005F0000F4A11601146096821F480211160B0F59D
:10060000803F03D0B0F5802F0ED106E0084909687D
:1006100041F48031064A116007E00549096841F458
:10062000A021034A116000E000BF00BF7047000036
:10063000001002407047000001460020034A506845
:1006400020F4E06008435060704700000010024052
:1006500001460020034A506820F4605040EAC1007F
:100660005060704700100240014908667047000062
:100670000000424202460020044B586820F47C10DF
:1006800042EA01031843014B5860704700100240D2
:1006900001460020034A506820F0030008435060E0
:1006A0007047000000100240704770477047704765
:1006B0007047704770477047704770477047704782
:1006C0007047704770477047704770477047704772
:1006D0007047704770477047704770477047000019
:1006E0001FB5044600940020ADF80400ADF80600E4
:1006F000ADF80800ADF80C000C20ADF80A00694612
:10070000034800F015F80121014800F004F81FBD6E
:1007100000480040704721B1828942F40052828132
:1007200004E082894DF6FF731A4082817047000011
:100730002DE9F04786B005460E460024A24600BFCC
:1007400000BF00272F462C8A4CF6FF700440F0882B
:1007500004432C82AC894EF6F3100440B0883189F2
:100760000843718908430443AC81AC8A4FF6FF40CB
:100770000440B0890443AC8201A8FFF799FE1248F7
:10078000874202D1DDF810A001E0DDF80CA00AEBF1
:10079000CA0000EB0A1031688900B0FBF1F8642050
:1007A000B8FBF0F004012009642101FB108932201C
:1007B00000EB0910B0FBF1F000F00F0004432C81B6
:1007C00006B0BDE8F087000000380140C1F3080220
:1007D0008280704770477047704700BFFEE77047E0
:1007E00002E008C8121F08C1002AFAD170477047FA
:1007F000002001E001C1121F002AFBD17047000058
:100800007FB50FA30FCB8DE80F004125FFF7DAFC72
:10081000FFF7ECFD4FF41650FFF762FF002409E0EC
:100820001DF804100A48FFF7D1FFC820FFF7B2FCFB
:10083000601CC4B20D2CF3DB002004B070BD0000BE
:1008400048454C4C4F20574F524C4421000000006B
:1008500000480040000000000102030401020304FC
:1008600006070809020406087808002000A00020F6
:0808700000040000F007002065
:0400000520000131A5
:00000001FF
